{
  "contractName": "SocialNetwork",
  "abi": [
    {
      "anonymous": false,
      "inputs": [
        {
          "indexed": false,
          "internalType": "uint256",
          "name": "id",
          "type": "uint256"
        },
        {
          "indexed": false,
          "internalType": "string",
          "name": "content",
          "type": "string"
        },
        {
          "indexed": false,
          "internalType": "uint256",
          "name": "tipAmount",
          "type": "uint256"
        },
        {
          "indexed": false,
          "internalType": "address payable",
          "name": "author",
          "type": "address"
        }
      ],
      "name": "PostCreated",
      "type": "event"
    },
    {
      "anonymous": false,
      "inputs": [
        {
          "indexed": false,
          "internalType": "uint256",
          "name": "id",
          "type": "uint256"
        },
        {
          "indexed": false,
          "internalType": "string",
          "name": "content",
          "type": "string"
        },
        {
          "indexed": false,
          "internalType": "uint256",
          "name": "tipAmount",
          "type": "uint256"
        },
        {
          "indexed": false,
          "internalType": "address payable",
          "name": "author",
          "type": "address"
        }
      ],
      "name": "PostTipped",
      "type": "event"
    },
    {
      "constant": true,
      "inputs": [],
      "name": "postCount",
      "outputs": [
        {
          "internalType": "uint256",
          "name": "",
          "type": "uint256"
        }
      ],
      "payable": false,
      "stateMutability": "view",
      "type": "function"
    },
    {
      "constant": true,
      "inputs": [
        {
          "internalType": "uint256",
          "name": "",
          "type": "uint256"
        }
      ],
      "name": "posts",
      "outputs": [
        {
          "internalType": "uint256",
          "name": "id",
          "type": "uint256"
        },
        {
          "internalType": "string",
          "name": "content",
          "type": "string"
        },
        {
          "internalType": "uint256",
          "name": "tipAmount",
          "type": "uint256"
        },
        {
          "internalType": "address payable",
          "name": "author",
          "type": "address"
        }
      ],
      "payable": false,
      "stateMutability": "view",
      "type": "function"
    },
    {
      "constant": false,
      "inputs": [
        {
          "internalType": "string",
          "name": "_content",
          "type": "string"
        }
      ],
      "name": "createPost",
      "outputs": [],
      "payable": false,
      "stateMutability": "nonpayable",
      "type": "function"
    },
    {
      "constant": false,
      "inputs": [
        {
          "internalType": "uint256",
          "name": "_id",
          "type": "uint256"
        }
      ],
      "name": "tipPost",
      "outputs": [],
      "payable": true,
      "stateMutability": "payable",
      "type": "function"
    }
  ],
  "bytecode": "0x60806040526000805534801561001457600080fd5b50610934806100246000396000f3fe60806040526004361061003f5760003560e01c80630b1e7f831461004457806317906c2e1461013957806374d3c1f814610164578063c7303c6114610192575b600080fd5b34801561005057600080fd5b5061007d6004803603602081101561006757600080fd5b810190808035906020019092919050505061025a565b60405180858152602001806020018481526020018373ffffffffffffffffffffffffffffffffffffffff1673ffffffffffffffffffffffffffffffffffffffff168152602001828103825285818151815260200191508051906020019080838360005b838110156100fb5780820151818401526020810190506100e0565b50505050905090810190601f1680156101285780820380516001836020036101000a031916815260200191505b509550505050505060405180910390f35b34801561014557600080fd5b5061014e610342565b6040518082815260200191505060405180910390f35b6101906004803603602081101561017a57600080fd5b8101908080359060200190929190505050610348565b005b34801561019e57600080fd5b50610258600480360360208110156101b557600080fd5b81019080803590602001906401000000008111156101d257600080fd5b8201836020820111156101e457600080fd5b8035906020019184600183028401116401000000008311171561020657600080fd5b91908080601f016020809104026020016040519081016040528093929190818152602001838380828437600081840152601f19601f82011690508083019250505050505050919291929050505061065c565b005b6001602052806000526040600020600091509050806000015490806001018054600181600116156101000203166002900480601f01602080910402602001604051908101604052809291908181526020018280546001816001161561010002031660029004801561030c5780601f106102e15761010080835404028352916020019161030c565b820191906000526020600020905b8154815290600101906020018083116102ef57829003601f168201915b5050505050908060020154908060030160009054906101000a900473ffffffffffffffffffffffffffffffffffffffff16905084565b60005481565b61035061081c565b6001600083815260200190815260200160002060405180608001604052908160008201548152602001600182018054600181600116156101000203166002900480601f0160208091040260200160405190810160405280929190818152602001828054600181600116156101000203166002900480156104115780601f106103e657610100808354040283529160200191610411565b820191906000526020600020905b8154815290600101906020018083116103f457829003601f168201915b50505050508152602001600282015481526020016003820160009054906101000a900473ffffffffffffffffffffffffffffffffffffffff1673ffffffffffffffffffffffffffffffffffffffff1673ffffffffffffffffffffffffffffffffffffffff168152505090506000816060015190508073ffffffffffffffffffffffffffffffffffffffff166108fc349081150290604051600060405180830381858888f193505050501580156104cb573d6000803e3d6000fd5b5034826040015101826040018181525050816001600085815260200190815260200160002060008201518160000155602082015181600101908051906020019061051692919061085a565b506040820151816002015560608201518160030160006101000a81548173ffffffffffffffffffffffffffffffffffffffff021916908373ffffffffffffffffffffffffffffffffffffffff1602179055509050507f20988fe475351e75813672abada1dddb7ac67cbbeb81e61e1160b8329d8cdf1c8383602001518460400151856060015160405180858152602001806020018481526020018373ffffffffffffffffffffffffffffffffffffffff1673ffffffffffffffffffffffffffffffffffffffff168152602001828103825285818151815260200191508051906020019080838360005b8381101561061a5780820151818401526020810190506105ff565b50505050905090810190601f1680156106475780820380516001836020036101000a031916815260200191505b509550505050505060405180910390a1505050565b600080815480929190600101919050555060405180608001604052806000548152602001828152602001600081526020013373ffffffffffffffffffffffffffffffffffffffff1681525060016000805481526020019081526020016000206000820151816000015560208201518160010190805190602001906106e192919061085a565b506040820151816002015560608201518160030160006101000a81548173ffffffffffffffffffffffffffffffffffffffff021916908373ffffffffffffffffffffffffffffffffffffffff1602179055509050507fc66336337a24e513f909b3b25119854dba8385d51307dbc7d31d1b2805e19c7e6000548260003360405180858152602001806020018481526020018373ffffffffffffffffffffffffffffffffffffffff1673ffffffffffffffffffffffffffffffffffffffff168152602001828103825285818151815260200191508051906020019080838360005b838110156107dc5780820151818401526020810190506107c1565b50505050905090810190601f1680156108095780820380516001836020036101000a031916815260200191505b509550505050505060405180910390a150565b6040518060800160405280600081526020016060815260200160008152602001600073ffffffffffffffffffffffffffffffffffffffff1681525090565b828054600181600116156101000203166002900490600052602060002090601f016020900481019282601f1061089b57805160ff19168380011785556108c9565b828001600101855582156108c9579182015b828111156108c85782518255916020019190600101906108ad565b5b5090506108d691906108da565b5090565b6108fc91905b808211156108f85760008160009055506001016108e0565b5090565b9056fea265627a7a72315820b9956f48a20e2cbc89e2065b4176a83cecf4392d93ac91282831c61c6ed7eb2d64736f6c63430005100032",
  "source": "pragma solidity ^0.5.0;\n\n\ncontract SocialNetwork {\n    uint256 public postCount = 0;\n    mapping(uint256 => Post) public posts;\n\n    struct Post {\n        uint256 id;\n        string content;\n        uint256 tipAmount;\n        address payable author;\n    }\n\n    event PostCreated(\n        uint256 id,\n        string content,\n        uint256 tipAmount,\n        address payable author\n    );\n\n    event PostTipped(\n        uint256 id,\n        string content,\n        uint256 tipAmount,\n        address payable author\n    );\n\n    function createPost(string memory _content) public {\n        postCount++;\n        posts[postCount] = Post(postCount, _content, 0, msg.sender);\n        emit PostCreated(postCount, _content, 0, msg.sender);\n    }\n\n    function tipPost(uint256 _id) public payable {\n        // Fetch the post and store it in memory\n        Post memory _post = posts[_id];\n        // Fetch the author and store it in memory\n        address payable _author = _post.author;\n        // Transfer money to Author\n        address(_author).transfer(msg.value);\n        // Update the tip amount\n        _post.tipAmount = _post.tipAmount + msg.value;\n        // Update the original post from the memory _post\n        posts[_id] = _post;\n\n        emit PostTipped(_id, _post.content, _post.tipAmount, _post.author);\n    }\n}\n",
  "sourcePath": "/media/dinesh/Workstations/Blockchain/Ethereum Projects/SocialNetworkDApp/src/contracts/SocialNetwork.sol",
  "compiler": {
    "name": "solc",
    "version": "0.5.16+commit.9c3226ce.Emscripten.clang"
  },
  "schemaVersion": "3.0.23",
  "updatedAt": "2020-05-07T04:39:04.635Z",
  "networkType": "ethereum",
  "devdoc": {
    "methods": {}
  },
  "userdoc": {
    "methods": {}
  }
}